{
  "contractName": "CashMachine",
  "abi": [
    {
      "inputs": [
        {
          "internalType": "address",
          "name": "user",
          "type": "address"
        }
      ],
      "name": "getBalance",
      "outputs": [
        {
          "internalType": "uint256",
          "name": "",
          "type": "uint256"
        }
      ],
      "stateMutability": "view",
      "type": "function",
      "constant": true
    },
    {
      "inputs": [
        {
          "internalType": "uint256",
          "name": "amount",
          "type": "uint256"
        }
      ],
      "name": "deposit",
      "outputs": [],
      "stateMutability": "payable",
      "type": "function",
      "payable": true
    },
    {
      "inputs": [
        {
          "internalType": "uint256",
          "name": "amount",
          "type": "uint256"
        }
      ],
      "name": "withdraw",
      "outputs": [],
      "stateMutability": "nonpayable",
      "type": "function"
    }
  ],
  "bytecode": "0x608060405234801561000f575f80fd5b506105898061001d5f395ff3fe608060405260043610610033575f3560e01c80632e1a7d4d14610037578063b6b55f251461005f578063f8b2cb4f1461007b575b5f80fd5b348015610042575f80fd5b5061005d600480360381019061005891906102e2565b6100b7565b005b610079600480360381019061007491906102e2565b6101cf565b005b348015610086575f80fd5b506100a1600480360381019061009c9190610367565b610266565b6040516100ae91906103a1565b60405180910390f35b805f803373ffffffffffffffffffffffffffffffffffffffff1673ffffffffffffffffffffffffffffffffffffffff1681526020019081526020015f20541015610136576040517f08c379a000000000000000000000000000000000000000000000000000000000815260040161012d90610414565b60405180910390fd5b805f803373ffffffffffffffffffffffffffffffffffffffff1673ffffffffffffffffffffffffffffffffffffffff1681526020019081526020015f205f828254610181919061045f565b925050819055503373ffffffffffffffffffffffffffffffffffffffff166108fc8290811502906040515f60405180830381858888f193505050501580156101cb573d5f803e3d5ffd5b5050565b803414610211576040517f08c379a000000000000000000000000000000000000000000000000000000000815260040161020890610502565b60405180910390fd5b805f803373ffffffffffffffffffffffffffffffffffffffff1673ffffffffffffffffffffffffffffffffffffffff1681526020019081526020015f205f82825461025c9190610520565b9250508190555050565b5f805f8373ffffffffffffffffffffffffffffffffffffffff1673ffffffffffffffffffffffffffffffffffffffff1681526020019081526020015f20549050919050565b5f80fd5b5f819050919050565b6102c1816102af565b81146102cb575f80fd5b50565b5f813590506102dc816102b8565b92915050565b5f602082840312156102f7576102f66102ab565b5b5f610304848285016102ce565b91505092915050565b5f73ffffffffffffffffffffffffffffffffffffffff82169050919050565b5f6103368261030d565b9050919050565b6103468161032c565b8114610350575f80fd5b50565b5f813590506103618161033d565b92915050565b5f6020828403121561037c5761037b6102ab565b5b5f61038984828501610353565b91505092915050565b61039b816102af565b82525050565b5f6020820190506103b45f830184610392565b92915050565b5f82825260208201905092915050565b7f496e73756666696369656e742062616c616e63652e00000000000000000000005f82015250565b5f6103fe6015836103ba565b9150610409826103ca565b602082019050919050565b5f6020820190508181035f83015261042b816103f2565b9050919050565b7f4e487b71000000000000000000000000000000000000000000000000000000005f52601160045260245ffd5b5f610469826102af565b9150610474836102af565b925082820390508181111561048c5761048b610432565b5b92915050565b7f596f75206d7573742073656e642074686520657861637420616d6f756e7420745f8201527f6f206465706f7369742e00000000000000000000000000000000000000000000602082015250565b5f6104ec602a836103ba565b91506104f782610492565b604082019050919050565b5f6020820190508181035f830152610519816104e0565b9050919050565b5f61052a826102af565b9150610535836102af565b925082820190508082111561054d5761054c610432565b5b9291505056fea26469706673582212208cb5dd842c833fee26f04fe46685e4ba05f6bd3a29f9ad20e3b4db88679e873764736f6c63430008150033",
  "immutableReferences": {},
  "source": "// SPDX-License-Identifier: MIT \npragma solidity ^0.8.0;\n\ncontract CashMachine {\n    mapping(address => uint) private balances;\n\n    function getBalance(address user) public view returns (uint) {\n        return balances[user];\n    }\n\n    function deposit(uint amount) public payable {\n        require(msg.value == amount, \"You must send the exact amount to deposit.\");\n        balances[msg.sender] += amount;\n    }\n\n    function withdraw(uint amount) public {\n        require(balances[msg.sender] >= amount, \"Insufficient balance.\");\n        balances[msg.sender] -= amount;\n        payable(msg.sender).transfer(amount);\n    }\n}\n",
  "sourcePath": "C:\\apps\\atm-web3\\contracts\\CashMachine.sol",
  "compiler": {
    "name": "solc",
    "version": "0.8.21+commit.d9974bed.Emscripten.clang"
  },
  "schemaVersion": "3.4.16",
  "updatedAt": "2023-10-29T18:35:47.220Z",
  "networkType": "ethereum",
  "devdoc": {
    "kind": "dev",
    "methods": {},
    "version": 1
  },
  "userdoc": {
    "kind": "user",
    "methods": {},
    "version": 1
  }
}